:100000000C942A000C9434000C9434000C943400AA
:100010000C9434000C9434000C9434000C94340090
:100020000C9434000C9434000C9434000C94340080
:100030000C9434000C9434000C9434000C94340070
:100040000C9434000C9434000C9434000C94340060
:100050000C94340011241FBECFE5D4E0DEBFCDBF29
:100060000E9434010C9452010C940000DF93CF9352
:1000700000D0CDB7DEB71A824CC0EAE3F0E08A8147
:10008000282F30E080E190E002C0880F991F2A9568
:10009000E2F78083EBE3F0E08A81282F30E080E113
:1000A00090E0022E02C0880F991F0A94E2F7809513
:1000B0008083198228C0E9E3F0E08081282F30E0B6
:1000C0008981882F90E0A90102C0559547958A95AE
:1000D000E2F7CA0181709070009791F48981882FAE
:1000E00090E0880F991F880F991F982F8A81890F98
:1000F0008F5F0E948E000F900F90CF91DF91089537
:1001000089818F5F898389818430A8F28A818F5F9A
:100110008A838A81843008F4B0CFADCFDF93CF9348
:1001200000D000D0CDB7DEB789838981282F30E099
:100130003C832B838B819C818830910509F470C0AE
:100140002B813C81293031055CF58B819C81843089
:10015000910509F459C02B813C81253031059CF46F
:100160008B819C818230910509F448C02B813C81B0
:10017000233031050CF045C08B819C818130910585
:1001800009F439C067C02B813C812630310509F460
:1001900041C08B819C81873091050CF03EC037C0F7
:1001A0002B813C812C30310509F446C08B819C8128
:1001B0008D3091055CF42B813C812A303105B1F101
:1001C0008B819C818B309105A4F52DC02B813C81C6
:1001D0002E303105B9F18B819C818E3091057CF1F7
:1001E0002B813C812F30310579F18B819C818031CD
:1001F000910569F12FC097E09A832EC028E02A83E9
:100200002BC039E03A8328C085E28A8325C094E078
:100210009A8322C025E02A831FC036E03A831CC09F
:100220008AE28A8319C091E09A8316C022E02A8369
:1002300013C033E03A8310C08DE28A830DC09DE085
:100240009A830AC01A8208C02DE32A8305C03BE2C4
:100250003A8302C089818A838A810F900F900F9020
:100260000F90CF91DF910895DF93CF930F92CDB789
:10027000DEB7A4E3B0E0E4E3F0E080818F608C932C
:10028000A5E3B0E0E5E3F0E08081807F8C930E94FD
:100290003600898389818A30D0F7E5E3F0E08981EF
:0802A0008083F5CFF894FFCF35
:00000001FF
